{
  "_format": "hh-sol-artifact-1",
  "contractName": "MemeToken",
  "sourceName": "contracts/MemeToken.sol",
  "abi": [
    {
      "inputs": [
        {
          "internalType": "string",
          "name": "name",
          "type": "string"
        },
        {
          "internalType": "string",
          "name": "symbol",
          "type": "string"
        },
        {
          "internalType": "uint256",
          "name": "initialSupply",
          "type": "uint256"
        },
        {
          "internalType": "string",
          "name": "_tokenImage",
          "type": "string"
        },
        {
          "internalType": "address",
          "name": "recipient",
          "type": "address"
        }
      ],
      "stateMutability": "nonpayable",
      "type": "constructor"
    },
    {
      "inputs": [
        {
          "internalType": "address",
          "name": "spender",
          "type": "address"
        },
        {
          "internalType": "uint256",
          "name": "allowance",
          "type": "uint256"
        },
        {
          "internalType": "uint256",
          "name": "needed",
          "type": "uint256"
        }
      ],
      "name": "ERC20InsufficientAllowance",
      "type": "error"
    },
    {
      "inputs": [
        {
          "internalType": "address",
          "name": "sender",
          "type": "address"
        },
        {
          "internalType": "uint256",
          "name": "balance",
          "type": "uint256"
        },
        {
          "internalType": "uint256",
          "name": "needed",
          "type": "uint256"
        }
      ],
      "name": "ERC20InsufficientBalance",
      "type": "error"
    },
    {
      "inputs": [
        {
          "internalType": "address",
          "name": "approver",
          "type": "address"
        }
      ],
      "name": "ERC20InvalidApprover",
      "type": "error"
    },
    {
      "inputs": [
        {
          "internalType": "address",
          "name": "receiver",
          "type": "address"
        }
      ],
      "name": "ERC20InvalidReceiver",
      "type": "error"
    },
    {
      "inputs": [
        {
          "internalType": "address",
          "name": "sender",
          "type": "address"
        }
      ],
      "name": "ERC20InvalidSender",
      "type": "error"
    },
    {
      "inputs": [
        {
          "internalType": "address",
          "name": "spender",
          "type": "address"
        }
      ],
      "name": "ERC20InvalidSpender",
      "type": "error"
    },
    {
      "anonymous": false,
      "inputs": [
        {
          "indexed": true,
          "internalType": "address",
          "name": "owner",
          "type": "address"
        },
        {
          "indexed": true,
          "internalType": "address",
          "name": "spender",
          "type": "address"
        },
        {
          "indexed": false,
          "internalType": "uint256",
          "name": "value",
          "type": "uint256"
        }
      ],
      "name": "Approval",
      "type": "event"
    },
    {
      "anonymous": false,
      "inputs": [
        {
          "indexed": true,
          "internalType": "address",
          "name": "from",
          "type": "address"
        },
        {
          "indexed": true,
          "internalType": "address",
          "name": "to",
          "type": "address"
        },
        {
          "indexed": false,
          "internalType": "uint256",
          "name": "value",
          "type": "uint256"
        }
      ],
      "name": "Transfer",
      "type": "event"
    },
    {
      "inputs": [
        {
          "internalType": "address",
          "name": "owner",
          "type": "address"
        },
        {
          "internalType": "address",
          "name": "spender",
          "type": "address"
        }
      ],
      "name": "allowance",
      "outputs": [
        {
          "internalType": "uint256",
          "name": "",
          "type": "uint256"
        }
      ],
      "stateMutability": "view",
      "type": "function"
    },
    {
      "inputs": [
        {
          "internalType": "address",
          "name": "spender",
          "type": "address"
        },
        {
          "internalType": "uint256",
          "name": "value",
          "type": "uint256"
        }
      ],
      "name": "approve",
      "outputs": [
        {
          "internalType": "bool",
          "name": "",
          "type": "bool"
        }
      ],
      "stateMutability": "nonpayable",
      "type": "function"
    },
    {
      "inputs": [
        {
          "internalType": "address",
          "name": "account",
          "type": "address"
        }
      ],
      "name": "balanceOf",
      "outputs": [
        {
          "internalType": "uint256",
          "name": "",
          "type": "uint256"
        }
      ],
      "stateMutability": "view",
      "type": "function"
    },
    {
      "inputs": [],
      "name": "decimals",
      "outputs": [
        {
          "internalType": "uint8",
          "name": "",
          "type": "uint8"
        }
      ],
      "stateMutability": "view",
      "type": "function"
    },
    {
      "inputs": [],
      "name": "getTokenInfo",
      "outputs": [
        {
          "internalType": "string",
          "name": "tokenName",
          "type": "string"
        },
        {
          "internalType": "string",
          "name": "tokenSymbol",
          "type": "string"
        },
        {
          "internalType": "uint256",
          "name": "tokenSupply",
          "type": "uint256"
        },
        {
          "internalType": "string",
          "name": "image",
          "type": "string"
        }
      ],
      "stateMutability": "view",
      "type": "function"
    },
    {
      "inputs": [],
      "name": "name",
      "outputs": [
        {
          "internalType": "string",
          "name": "",
          "type": "string"
        }
      ],
      "stateMutability": "view",
      "type": "function"
    },
    {
      "inputs": [],
      "name": "symbol",
      "outputs": [
        {
          "internalType": "string",
          "name": "",
          "type": "string"
        }
      ],
      "stateMutability": "view",
      "type": "function"
    },
    {
      "inputs": [],
      "name": "tokenImage",
      "outputs": [
        {
          "internalType": "string",
          "name": "",
          "type": "string"
        }
      ],
      "stateMutability": "view",
      "type": "function"
    },
    {
      "inputs": [],
      "name": "totalSupply",
      "outputs": [
        {
          "internalType": "uint256",
          "name": "",
          "type": "uint256"
        }
      ],
      "stateMutability": "view",
      "type": "function"
    },
    {
      "inputs": [
        {
          "internalType": "address",
          "name": "to",
          "type": "address"
        },
        {
          "internalType": "uint256",
          "name": "value",
          "type": "uint256"
        }
      ],
      "name": "transfer",
      "outputs": [
        {
          "internalType": "bool",
          "name": "",
          "type": "bool"
        }
      ],
      "stateMutability": "nonpayable",
      "type": "function"
    },
    {
      "inputs": [
        {
          "internalType": "address",
          "name": "from",
          "type": "address"
        },
        {
          "internalType": "address",
          "name": "to",
          "type": "address"
        },
        {
          "internalType": "uint256",
          "name": "value",
          "type": "uint256"
        }
      ],
      "name": "transferFrom",
      "outputs": [
        {
          "internalType": "bool",
          "name": "",
          "type": "bool"
        }
      ],
      "stateMutability": "nonpayable",
      "type": "function"
    }
  ],
  "bytecode": "0x60806040523480156200001157600080fd5b5060405162001d1c38038062001d1c8339818101604052810190620000379190620005b1565b848481600390816200004a9190620008d7565b5080600490816200005c9190620008d7565b5050506200009b8162000074620000b860201b60201c565b600a62000082919062000b4e565b856200008f919062000b9f565b620000c160201b60201c565b8160059081620000ac9190620008d7565b50505050505062000cbe565b60006012905090565b600073ffffffffffffffffffffffffffffffffffffffff168273ffffffffffffffffffffffffffffffffffffffff1603620001365760006040517fec442f050000000000000000000000000000000000000000000000000000000081526004016200012d919062000bfb565b60405180910390fd5b6200014a600083836200014e60201b60201c565b5050565b600073ffffffffffffffffffffffffffffffffffffffff168373ffffffffffffffffffffffffffffffffffffffff1603620001a457806002600082825462000197919062000c18565b925050819055506200027a565b60008060008573ffffffffffffffffffffffffffffffffffffffff1673ffffffffffffffffffffffffffffffffffffffff1681526020019081526020016000205490508181101562000233578381836040517fe450d38c0000000000000000000000000000000000000000000000000000000081526004016200022a9392919062000c64565b60405180910390fd5b8181036000808673ffffffffffffffffffffffffffffffffffffffff1673ffffffffffffffffffffffffffffffffffffffff16815260200190815260200160002081905550505b600073ffffffffffffffffffffffffffffffffffffffff168273ffffffffffffffffffffffffffffffffffffffff1603620002c5578060026000828254039250508190555062000312565b806000808473ffffffffffffffffffffffffffffffffffffffff1673ffffffffffffffffffffffffffffffffffffffff168152602001908152602001600020600082825401925050819055505b8173ffffffffffffffffffffffffffffffffffffffff168373ffffffffffffffffffffffffffffffffffffffff167fddf252ad1be2c89b69c2b068fc378daa952ba7f163c4a11628f55a4df523b3ef8360405162000371919062000ca1565b60405180910390a3505050565b6000604051905090565b600080fd5b600080fd5b600080fd5b600080fd5b6000601f19601f8301169050919050565b7f4e487b7100000000000000000000000000000000000000000000000000000000600052604160045260246000fd5b620003e7826200039c565b810181811067ffffffffffffffff82111715620004095762000408620003ad565b5b80604052505050565b60006200041e6200037e565b90506200042c8282620003dc565b919050565b600067ffffffffffffffff8211156200044f576200044e620003ad565b5b6200045a826200039c565b9050602081019050919050565b60005b83811015620004875780820151818401526020810190506200046a565b60008484015250505050565b6000620004aa620004a48462000431565b62000412565b905082815260208101848484011115620004c957620004c862000397565b5b620004d684828562000467565b509392505050565b600082601f830112620004f657620004f562000392565b5b81516200050884826020860162000493565b91505092915050565b6000819050919050565b620005268162000511565b81146200053257600080fd5b50565b60008151905062000546816200051b565b92915050565b600073ffffffffffffffffffffffffffffffffffffffff82169050919050565b600062000579826200054c565b9050919050565b6200058b816200056c565b81146200059757600080fd5b50565b600081519050620005ab8162000580565b92915050565b600080600080600060a08688031215620005d057620005cf62000388565b5b600086015167ffffffffffffffff811115620005f157620005f06200038d565b5b620005ff88828901620004de565b955050602086015167ffffffffffffffff8111156200062357620006226200038d565b5b6200063188828901620004de565b9450506040620006448882890162000535565b935050606086015167ffffffffffffffff8111156200066857620006676200038d565b5b6200067688828901620004de565b925050608062000689888289016200059a565b9150509295509295909350565b600081519050919050565b7f4e487b7100000000000000000000000000000000000000000000000000000000600052602260045260246000fd5b60006002820490506001821680620006e957607f821691505b602082108103620006ff57620006fe620006a1565b5b50919050565b60008190508160005260206000209050919050565b60006020601f8301049050919050565b600082821b905092915050565b600060088302620007697fffffffffffffffffffffffffffffffffffffffffffffffffffffffffffffffff826200072a565b6200077586836200072a565b95508019841693508086168417925050509392505050565b6000819050919050565b6000620007b8620007b2620007ac8462000511565b6200078d565b62000511565b9050919050565b6000819050919050565b620007d48362000797565b620007ec620007e382620007bf565b84845462000737565b825550505050565b600090565b62000803620007f4565b62000810818484620007c9565b505050565b5b8181101562000838576200082c600082620007f9565b60018101905062000816565b5050565b601f8211156200088757620008518162000705565b6200085c846200071a565b810160208510156200086c578190505b620008846200087b856200071a565b83018262000815565b50505b505050565b600082821c905092915050565b6000620008ac600019846008026200088c565b1980831691505092915050565b6000620008c7838362000899565b9150826002028217905092915050565b620008e28262000696565b67ffffffffffffffff811115620008fe57620008fd620003ad565b5b6200090a8254620006d0565b620009178282856200083c565b600060209050601f8311600181146200094f57600084156200093a578287015190505b620009468582620008b9565b865550620009b6565b601f1984166200095f8662000705565b60005b82811015620009895784890151825560018201915060208501945060208101905062000962565b86831015620009a95784890151620009a5601f89168262000899565b8355505b6001600288020188555050505b505050505050565b7f4e487b7100000000000000000000000000000000000000000000000000000000600052601160045260246000fd5b60008160011c9050919050565b6000808291508390505b600185111562000a4c5780860481111562000a245762000a23620009be565b5b600185161562000a345780820291505b808102905062000a4485620009ed565b945062000a04565b94509492505050565b60008262000a67576001905062000b3a565b8162000a77576000905062000b3a565b816001811462000a90576002811462000a9b5762000ad1565b600191505062000b3a565b60ff84111562000ab05762000aaf620009be565b5b8360020a91508482111562000aca5762000ac9620009be565b5b5062000b3a565b5060208310610133831016604e8410600b841016171562000b0b5782820a90508381111562000b055762000b04620009be565b5b62000b3a565b62000b1a8484846001620009fa565b9250905081840481111562000b345762000b33620009be565b5b81810290505b9392505050565b600060ff82169050919050565b600062000b5b8262000511565b915062000b688362000b41565b925062000b977fffffffffffffffffffffffffffffffffffffffffffffffffffffffffffffffff848462000a55565b905092915050565b600062000bac8262000511565b915062000bb98362000511565b925082820262000bc98162000511565b9150828204841483151762000be35762000be2620009be565b5b5092915050565b62000bf5816200056c565b82525050565b600060208201905062000c12600083018462000bea565b92915050565b600062000c258262000511565b915062000c328362000511565b925082820190508082111562000c4d5762000c4c620009be565b5b92915050565b62000c5e8162000511565b82525050565b600060608201905062000c7b600083018662000bea565b62000c8a602083018562000c53565b62000c99604083018462000c53565b949350505050565b600060208201905062000cb8600083018462000c53565b92915050565b61104e8062000cce6000396000f3fe608060405234801561001057600080fd5b50600436106100a95760003560e01c806370a082311161007157806370a082311461016857806395d89b4114610198578063a9059cbb146101b6578063abb1dc44146101e6578063c1aef4f214610207578063dd62ed3e14610225576100a9565b806306fdde03146100ae578063095ea7b3146100cc57806318160ddd146100fc57806323b872dd1461011a578063313ce5671461014a575b600080fd5b6100b6610255565b6040516100c39190610c48565b60405180910390f35b6100e660048036038101906100e19190610d03565b6102e7565b6040516100f39190610d5e565b60405180910390f35b61010461030a565b6040516101119190610d88565b60405180910390f35b610134600480360381019061012f9190610da3565b610314565b6040516101419190610d5e565b60405180910390f35b610152610343565b60405161015f9190610e12565b60405180910390f35b610182600480360381019061017d9190610e2d565b61034c565b60405161018f9190610d88565b60405180910390f35b6101a0610394565b6040516101ad9190610c48565b60405180910390f35b6101d060048036038101906101cb9190610d03565b610426565b6040516101dd9190610d5e565b60405180910390f35b6101ee610449565b6040516101fe9493929190610e5a565b60405180910390f35b61020f610504565b60405161021c9190610c48565b60405180910390f35b61023f600480360381019061023a9190610eb4565b610592565b60405161024c9190610d88565b60405180910390f35b60606003805461026490610f23565b80601f016020809104026020016040519081016040528092919081815260200182805461029090610f23565b80156102dd5780601f106102b2576101008083540402835291602001916102dd565b820191906000526020600020905b8154815290600101906020018083116102c057829003601f168201915b5050505050905090565b6000806102f2610619565b90506102ff818585610621565b600191505092915050565b6000600254905090565b60008061031f610619565b905061032c858285610633565b6103378585856106c8565b60019150509392505050565b60006012905090565b60008060008373ffffffffffffffffffffffffffffffffffffffff1673ffffffffffffffffffffffffffffffffffffffff168152602001908152602001600020549050919050565b6060600480546103a390610f23565b80601f01602080910402602001604051908101604052809291908181526020018280546103cf90610f23565b801561041c5780601f106103f15761010080835404028352916020019161041c565b820191906000526020600020905b8154815290600101906020018083116103ff57829003601f168201915b5050505050905090565b600080610431610619565b905061043e8185856106c8565b600191505092915050565b60608060006060610458610255565b610460610394565b61046861030a565b600580805461047690610f23565b80601f01602080910402602001604051908101604052809291908181526020018280546104a290610f23565b80156104ef5780601f106104c4576101008083540402835291602001916104ef565b820191906000526020600020905b8154815290600101906020018083116104d257829003601f168201915b50505050509050935093509350935090919293565b6005805461051190610f23565b80601f016020809104026020016040519081016040528092919081815260200182805461053d90610f23565b801561058a5780601f1061055f5761010080835404028352916020019161058a565b820191906000526020600020905b81548152906001019060200180831161056d57829003601f168201915b505050505081565b6000600160008473ffffffffffffffffffffffffffffffffffffffff1673ffffffffffffffffffffffffffffffffffffffff16815260200190815260200160002060008373ffffffffffffffffffffffffffffffffffffffff1673ffffffffffffffffffffffffffffffffffffffff16815260200190815260200160002054905092915050565b600033905090565b61062e83838360016107bc565b505050565b600061063f8484610592565b90507fffffffffffffffffffffffffffffffffffffffffffffffffffffffffffffffff8110156106c257818110156106b2578281836040517ffb8f41b20000000000000000000000000000000000000000000000000000000081526004016106a993929190610f63565b60405180910390fd5b6106c1848484840360006107bc565b5b50505050565b600073ffffffffffffffffffffffffffffffffffffffff168373ffffffffffffffffffffffffffffffffffffffff160361073a5760006040517f96c6fd1e0000000000000000000000000000000000000000000000000000000081526004016107319190610f9a565b60405180910390fd5b600073ffffffffffffffffffffffffffffffffffffffff168273ffffffffffffffffffffffffffffffffffffffff16036107ac5760006040517fec442f050000000000000000000000000000000000000000000000000000000081526004016107a39190610f9a565b60405180910390fd5b6107b7838383610993565b505050565b600073ffffffffffffffffffffffffffffffffffffffff168473ffffffffffffffffffffffffffffffffffffffff160361082e5760006040517fe602df050000000000000000000000000000000000000000000000000000000081526004016108259190610f9a565b60405180910390fd5b600073ffffffffffffffffffffffffffffffffffffffff168373ffffffffffffffffffffffffffffffffffffffff16036108a05760006040517f94280d620000000000000000000000000000000000000000000000000000000081526004016108979190610f9a565b60405180910390fd5b81600160008673ffffffffffffffffffffffffffffffffffffffff1673ffffffffffffffffffffffffffffffffffffffff16815260200190815260200160002060008573ffffffffffffffffffffffffffffffffffffffff1673ffffffffffffffffffffffffffffffffffffffff16815260200190815260200160002081905550801561098d578273ffffffffffffffffffffffffffffffffffffffff168473ffffffffffffffffffffffffffffffffffffffff167f8c5be1e5ebec7d5bd14f71427d1e84f3dd0314c0f7b2291e5b200ac8c7c3b925846040516109849190610d88565b60405180910390a35b50505050565b600073ffffffffffffffffffffffffffffffffffffffff168373ffffffffffffffffffffffffffffffffffffffff16036109e55780600260008282546109d99190610fe4565b92505081905550610ab8565b60008060008573ffffffffffffffffffffffffffffffffffffffff1673ffffffffffffffffffffffffffffffffffffffff16815260200190815260200160002054905081811015610a71578381836040517fe450d38c000000000000000000000000000000000000000000000000000000008152600401610a6893929190610f63565b60405180910390fd5b8181036000808673ffffffffffffffffffffffffffffffffffffffff1673ffffffffffffffffffffffffffffffffffffffff16815260200190815260200160002081905550505b600073ffffffffffffffffffffffffffffffffffffffff168273ffffffffffffffffffffffffffffffffffffffff1603610b015780600260008282540392505081905550610b4e565b806000808473ffffffffffffffffffffffffffffffffffffffff1673ffffffffffffffffffffffffffffffffffffffff168152602001908152602001600020600082825401925050819055505b8173ffffffffffffffffffffffffffffffffffffffff168373ffffffffffffffffffffffffffffffffffffffff167fddf252ad1be2c89b69c2b068fc378daa952ba7f163c4a11628f55a4df523b3ef83604051610bab9190610d88565b60405180910390a3505050565b600081519050919050565b600082825260208201905092915050565b60005b83811015610bf2578082015181840152602081019050610bd7565b60008484015250505050565b6000601f19601f8301169050919050565b6000610c1a82610bb8565b610c248185610bc3565b9350610c34818560208601610bd4565b610c3d81610bfe565b840191505092915050565b60006020820190508181036000830152610c628184610c0f565b905092915050565b600080fd5b600073ffffffffffffffffffffffffffffffffffffffff82169050919050565b6000610c9a82610c6f565b9050919050565b610caa81610c8f565b8114610cb557600080fd5b50565b600081359050610cc781610ca1565b92915050565b6000819050919050565b610ce081610ccd565b8114610ceb57600080fd5b50565b600081359050610cfd81610cd7565b92915050565b60008060408385031215610d1a57610d19610c6a565b5b6000610d2885828601610cb8565b9250506020610d3985828601610cee565b9150509250929050565b60008115159050919050565b610d5881610d43565b82525050565b6000602082019050610d736000830184610d4f565b92915050565b610d8281610ccd565b82525050565b6000602082019050610d9d6000830184610d79565b92915050565b600080600060608486031215610dbc57610dbb610c6a565b5b6000610dca86828701610cb8565b9350506020610ddb86828701610cb8565b9250506040610dec86828701610cee565b9150509250925092565b600060ff82169050919050565b610e0c81610df6565b82525050565b6000602082019050610e276000830184610e03565b92915050565b600060208284031215610e4357610e42610c6a565b5b6000610e5184828501610cb8565b91505092915050565b60006080820190508181036000830152610e748187610c0f565b90508181036020830152610e888186610c0f565b9050610e976040830185610d79565b8181036060830152610ea98184610c0f565b905095945050505050565b60008060408385031215610ecb57610eca610c6a565b5b6000610ed985828601610cb8565b9250506020610eea85828601610cb8565b9150509250929050565b7f4e487b7100000000000000000000000000000000000000000000000000000000600052602260045260246000fd5b60006002820490506001821680610f3b57607f821691505b602082108103610f4e57610f4d610ef4565b5b50919050565b610f5d81610c8f565b82525050565b6000606082019050610f786000830186610f54565b610f856020830185610d79565b610f926040830184610d79565b949350505050565b6000602082019050610faf6000830184610f54565b92915050565b7f4e487b7100000000000000000000000000000000000000000000000000000000600052601160045260246000fd5b6000610fef82610ccd565b9150610ffa83610ccd565b925082820190508082111561101257611011610fb5565b5b9291505056fea2646970667358221220f506d4932f509217e3ce213c440f1542d6a71824a214f2b14f74faa730ddc2ec64736f6c63430008140033",
  "linkReferences": {},
  "deployedLinkReferences": {}
}